{
  "_format": "hh-sol-artifact-1",
  "contractName": "GaslessToken",
  "sourceName": "contracts/GaslessToken.sol",
  "abi": [
    {
      "inputs": [
        {
          "internalType": "address",
          "name": "forwarder",
          "type": "address"
        }
      ],
      "stateMutability": "nonpayable",
      "type": "constructor"
    },
    {
      "anonymous": false,
      "inputs": [
        {
          "indexed": true,
          "internalType": "address",
          "name": "owner",
          "type": "address"
        },
        {
          "indexed": true,
          "internalType": "address",
          "name": "spender",
          "type": "address"
        },
        {
          "indexed": false,
          "internalType": "uint256",
          "name": "value",
          "type": "uint256"
        }
      ],
      "name": "Approval",
      "type": "event"
    },
    {
      "anonymous": false,
      "inputs": [
        {
          "indexed": true,
          "internalType": "address",
          "name": "previousOwner",
          "type": "address"
        },
        {
          "indexed": true,
          "internalType": "address",
          "name": "newOwner",
          "type": "address"
        }
      ],
      "name": "OwnershipTransferred",
      "type": "event"
    },
    {
      "anonymous": false,
      "inputs": [
        {
          "indexed": true,
          "internalType": "address",
          "name": "from",
          "type": "address"
        },
        {
          "indexed": true,
          "internalType": "address",
          "name": "to",
          "type": "address"
        },
        {
          "indexed": false,
          "internalType": "uint256",
          "name": "value",
          "type": "uint256"
        }
      ],
      "name": "Transfer",
      "type": "event"
    },
    {
      "inputs": [
        {
          "internalType": "address",
          "name": "owner",
          "type": "address"
        },
        {
          "internalType": "address",
          "name": "spender",
          "type": "address"
        }
      ],
      "name": "allowance",
      "outputs": [
        {
          "internalType": "uint256",
          "name": "",
          "type": "uint256"
        }
      ],
      "stateMutability": "view",
      "type": "function"
    },
    {
      "inputs": [
        {
          "internalType": "address",
          "name": "spender",
          "type": "address"
        },
        {
          "internalType": "uint256",
          "name": "amount",
          "type": "uint256"
        }
      ],
      "name": "approve",
      "outputs": [
        {
          "internalType": "bool",
          "name": "",
          "type": "bool"
        }
      ],
      "stateMutability": "nonpayable",
      "type": "function"
    },
    {
      "inputs": [
        {
          "internalType": "address",
          "name": "account",
          "type": "address"
        }
      ],
      "name": "balanceOf",
      "outputs": [
        {
          "internalType": "uint256",
          "name": "",
          "type": "uint256"
        }
      ],
      "stateMutability": "view",
      "type": "function"
    },
    {
      "inputs": [],
      "name": "decimals",
      "outputs": [
        {
          "internalType": "uint8",
          "name": "",
          "type": "uint8"
        }
      ],
      "stateMutability": "view",
      "type": "function"
    },
    {
      "inputs": [
        {
          "internalType": "address",
          "name": "spender",
          "type": "address"
        },
        {
          "internalType": "uint256",
          "name": "subtractedValue",
          "type": "uint256"
        }
      ],
      "name": "decreaseAllowance",
      "outputs": [
        {
          "internalType": "bool",
          "name": "",
          "type": "bool"
        }
      ],
      "stateMutability": "nonpayable",
      "type": "function"
    },
    {
      "inputs": [],
      "name": "getTrustedForwarder",
      "outputs": [
        {
          "internalType": "address",
          "name": "forwarder",
          "type": "address"
        }
      ],
      "stateMutability": "view",
      "type": "function"
    },
    {
      "inputs": [
        {
          "internalType": "address",
          "name": "spender",
          "type": "address"
        },
        {
          "internalType": "uint256",
          "name": "addedValue",
          "type": "uint256"
        }
      ],
      "name": "increaseAllowance",
      "outputs": [
        {
          "internalType": "bool",
          "name": "",
          "type": "bool"
        }
      ],
      "stateMutability": "nonpayable",
      "type": "function"
    },
    {
      "inputs": [
        {
          "internalType": "address",
          "name": "forwarder",
          "type": "address"
        }
      ],
      "name": "isTrustedForwarder",
      "outputs": [
        {
          "internalType": "bool",
          "name": "",
          "type": "bool"
        }
      ],
      "stateMutability": "view",
      "type": "function"
    },
    {
      "inputs": [
        {
          "internalType": "address",
          "name": "to",
          "type": "address"
        },
        {
          "internalType": "uint256",
          "name": "amount",
          "type": "uint256"
        }
      ],
      "name": "mint",
      "outputs": [],
      "stateMutability": "nonpayable",
      "type": "function"
    },
    {
      "inputs": [],
      "name": "name",
      "outputs": [
        {
          "internalType": "string",
          "name": "",
          "type": "string"
        }
      ],
      "stateMutability": "view",
      "type": "function"
    },
    {
      "inputs": [],
      "name": "owner",
      "outputs": [
        {
          "internalType": "address",
          "name": "",
          "type": "address"
        }
      ],
      "stateMutability": "view",
      "type": "function"
    },
    {
      "inputs": [],
      "name": "renounceOwnership",
      "outputs": [],
      "stateMutability": "nonpayable",
      "type": "function"
    },
    {
      "inputs": [],
      "name": "symbol",
      "outputs": [
        {
          "internalType": "string",
          "name": "",
          "type": "string"
        }
      ],
      "stateMutability": "view",
      "type": "function"
    },
    {
      "inputs": [],
      "name": "totalSupply",
      "outputs": [
        {
          "internalType": "uint256",
          "name": "",
          "type": "uint256"
        }
      ],
      "stateMutability": "view",
      "type": "function"
    },
    {
      "inputs": [
        {
          "internalType": "address",
          "name": "to",
          "type": "address"
        },
        {
          "internalType": "uint256",
          "name": "amount",
          "type": "uint256"
        }
      ],
      "name": "transfer",
      "outputs": [
        {
          "internalType": "bool",
          "name": "",
          "type": "bool"
        }
      ],
      "stateMutability": "nonpayable",
      "type": "function"
    },
    {
      "inputs": [
        {
          "internalType": "address",
          "name": "from",
          "type": "address"
        },
        {
          "internalType": "address",
          "name": "to",
          "type": "address"
        },
        {
          "internalType": "uint256",
          "name": "amount",
          "type": "uint256"
        }
      ],
      "name": "transferFrom",
      "outputs": [
        {
          "internalType": "bool",
          "name": "",
          "type": "bool"
        }
      ],
      "stateMutability": "nonpayable",
      "type": "function"
    },
    {
      "inputs": [
        {
          "internalType": "address",
          "name": "newOwner",
          "type": "address"
        }
      ],
      "name": "transferOwnership",
      "outputs": [],
      "stateMutability": "nonpayable",
      "type": "function"
    },
    {
      "inputs": [],
      "name": "versionRecipient",
      "outputs": [
        {
          "internalType": "string",
          "name": "",
          "type": "string"
        }
      ],
      "stateMutability": "view",
      "type": "function"
    }
  ],
  "bytecode": "0x60c0604052600660808190526576302e302e3160d01b60a0908152620000299160079190620001ac565b503480156200003757600080fd5b5060405162000f9e38038062000f9e8339810160408190526200005a9162000252565b6040518060400160405280600c81526020016b23b0b9b632b9b9aa37b5b2b760a11b8152506040518060400160405280600381526020016211d31560ea1b8152508160039080519060200190620000b3929190620001ac565b508051620000c9906004906020840190620001ac565b505050620000e6620000e06200010860201b60201c565b62000124565b600680546001600160a01b0319166001600160a01b03831617905550620002c1565b60006200011f6200017660201b620005b11760201c565b905090565b600580546001600160a01b038381166001600160a01b0319831681179093556040519116919082907f8be0079c531659141344cd1fd0a4f28419497f9722a3daafe3b4186f6b6457e090600090a35050565b6000601436108015906200019457506006546001600160a01b031633145b15620001a7575060131936013560601c90565b503390565b828054620001ba9062000284565b90600052602060002090601f016020900481019282620001de576000855562000229565b82601f10620001f957805160ff191683800117855562000229565b8280016001018555821562000229579182015b82811115620002295782518255916020019190600101906200020c565b50620002379291506200023b565b5090565b5b808211156200023757600081556001016200023c565b6000602082840312156200026557600080fd5b81516001600160a01b03811681146200027d57600080fd5b9392505050565b600181811c908216806200029957607f821691505b60208210811415620002bb57634e487b7160e01b600052602260045260246000fd5b50919050565b610ccd80620002d16000396000f3fe608060405234801561001057600080fd5b50600436106101165760003560e01c806370a08231116100a2578063a457c2d711610071578063a457c2d714610240578063a9059cbb14610253578063ce1b815f14610266578063dd62ed3e14610277578063f2fde38b1461028a57600080fd5b806370a08231146101e2578063715018a61461020b5780638da5cb5b1461021357806395d89b411461023857600080fd5b8063313ce567116100e9578063313ce56714610181578063395093511461019057806340c10f19146101a3578063486ff0cd146101b8578063572b6c05146101c057600080fd5b806306fdde031461011b578063095ea7b31461013957806318160ddd1461015c57806323b872dd1461016e575b600080fd5b61012361029d565b6040516101309190610b0a565b60405180910390f35b61014c610147366004610b7b565b61032f565b6040519015158152602001610130565b6002545b604051908152602001610130565b61014c61017c366004610ba5565b610351565b60405160128152602001610130565b61014c61019e366004610b7b565b61037f565b6101b66101b1366004610b7b565b6103ab565b005b6101236103b9565b61014c6101ce366004610be1565b6006546001600160a01b0391821691161490565b6101606101f0366004610be1565b6001600160a01b031660009081526020819052604090205490565b6101b6610447565b6005546001600160a01b03165b6040516001600160a01b039091168152602001610130565b61012361045b565b61014c61024e366004610b7b565b61046a565b61014c610261366004610b7b565b6104f5565b6006546001600160a01b0316610220565b610160610285366004610c03565b61050d565b6101b6610298366004610be1565b610538565b6060600380546102ac90610c36565b80601f01602080910402602001604051908101604052809291908181526020018280546102d890610c36565b80156103255780601f106102fa57610100808354040283529160200191610325565b820191906000526020600020905b81548152906001019060200180831161030857829003601f168201915b5050505050905090565b60008061033a6105e5565b90506103478185856105f4565b5060019392505050565b60008061035c6105e5565b9050610369858285610718565b610374858585610792565b506001949350505050565b60008061038a6105e5565b905061034781858561039c858961050d565b6103a69190610c71565b6105f4565b6103b58282610960565b5050565b600780546103c690610c36565b80601f01602080910402602001604051908101604052809291908181526020018280546103f290610c36565b801561043f5780601f106104145761010080835404028352916020019161043f565b820191906000526020600020905b81548152906001019060200180831161042257829003601f168201915b505050505081565b61044f610a3f565b6104596000610ab8565b565b6060600480546102ac90610c36565b6000806104756105e5565b90506000610483828661050d565b9050838110156104e85760405162461bcd60e51b815260206004820152602560248201527f45524332303a2064656372656173656420616c6c6f77616e63652062656c6f77604482015264207a65726f60d81b60648201526084015b60405180910390fd5b61037482868684036105f4565b6000806105006105e5565b9050610347818585610792565b6001600160a01b03918216600090815260016020908152604080832093909416825291909152205490565b610540610a3f565b6001600160a01b0381166105a55760405162461bcd60e51b815260206004820152602660248201527f4f776e61626c653a206e6577206f776e657220697320746865207a65726f206160448201526564647265737360d01b60648201526084016104df565b6105ae81610ab8565b50565b6000601436108015906105ce57506006546001600160a01b031633145b156105e0575060131936013560601c90565b503390565b60006105ef6105b1565b905090565b6001600160a01b0383166106565760405162461bcd60e51b8152602060048201526024808201527f45524332303a20617070726f76652066726f6d20746865207a65726f206164646044820152637265737360e01b60648201526084016104df565b6001600160a01b0382166106b75760405162461bcd60e51b815260206004820152602260248201527f45524332303a20617070726f766520746f20746865207a65726f206164647265604482015261737360f01b60648201526084016104df565b6001600160a01b0383811660008181526001602090815260408083209487168084529482529182902085905590518481527f8c5be1e5ebec7d5bd14f71427d1e84f3dd0314c0f7b2291e5b200ac8c7c3b925910160405180910390a3505050565b6000610724848461050d565b9050600019811461078c578181101561077f5760405162461bcd60e51b815260206004820152601d60248201527f45524332303a20696e73756666696369656e7420616c6c6f77616e636500000060448201526064016104df565b61078c84848484036105f4565b50505050565b6001600160a01b0383166107f65760405162461bcd60e51b815260206004820152602560248201527f45524332303a207472616e736665722066726f6d20746865207a65726f206164604482015264647265737360d81b60648201526084016104df565b6001600160a01b0382166108585760405162461bcd60e51b815260206004820152602360248201527f45524332303a207472616e7366657220746f20746865207a65726f206164647260448201526265737360e81b60648201526084016104df565b6001600160a01b038316600090815260208190526040902054818110156108d05760405162461bcd60e51b815260206004820152602660248201527f45524332303a207472616e7366657220616d6f756e7420657863656564732062604482015265616c616e636560d01b60648201526084016104df565b6001600160a01b03808516600090815260208190526040808220858503905591851681529081208054849290610907908490610c71565b92505081905550826001600160a01b0316846001600160a01b03167fddf252ad1be2c89b69c2b068fc378daa952ba7f163c4a11628f55a4df523b3ef8460405161095391815260200190565b60405180910390a361078c565b6001600160a01b0382166109b65760405162461bcd60e51b815260206004820152601f60248201527f45524332303a206d696e7420746f20746865207a65726f20616464726573730060448201526064016104df565b80600260008282546109c89190610c71565b90915550506001600160a01b038216600090815260208190526040812080548392906109f5908490610c71565b90915550506040518181526001600160a01b038316906000907fddf252ad1be2c89b69c2b068fc378daa952ba7f163c4a11628f55a4df523b3ef9060200160405180910390a35050565b610a476105e5565b6001600160a01b0316610a626005546001600160a01b031690565b6001600160a01b0316146104595760405162461bcd60e51b815260206004820181905260248201527f4f776e61626c653a2063616c6c6572206973206e6f7420746865206f776e657260448201526064016104df565b600580546001600160a01b038381166001600160a01b0319831681179093556040519116919082907f8be0079c531659141344cd1fd0a4f28419497f9722a3daafe3b4186f6b6457e090600090a35050565b600060208083528351808285015260005b81811015610b3757858101830151858201604001528201610b1b565b81811115610b49576000604083870101525b50601f01601f1916929092016040019392505050565b80356001600160a01b0381168114610b7657600080fd5b919050565b60008060408385031215610b8e57600080fd5b610b9783610b5f565b946020939093013593505050565b600080600060608486031215610bba57600080fd5b610bc384610b5f565b9250610bd160208501610b5f565b9150604084013590509250925092565b600060208284031215610bf357600080fd5b610bfc82610b5f565b9392505050565b60008060408385031215610c1657600080fd5b610c1f83610b5f565b9150610c2d60208401610b5f565b90509250929050565b600181811c90821680610c4a57607f821691505b60208210811415610c6b57634e487b7160e01b600052602260045260246000fd5b50919050565b60008219821115610c9257634e487b7160e01b600052601160045260246000fd5b50019056fea2646970667358221220f56dc6f689c0b5d34a9426c1425a6dea9cfa4ddd68babd176226fe2c94519d1c64736f6c63430008090033",
  "linkReferences": {},
  "deployedLinkReferences": {}
}