{
  "_format": "hh-sol-artifact-1",
  "contractName": "NFT",
  "sourceName": "contracts/NFT.sol",
  "abi": [
    {
      "inputs": [
        {
          "internalType": "address",
          "name": "_marketplace",
          "type": "address"
        },
        {
          "internalType": "address",
          "name": "forwarder",
          "type": "address"
        }
      ],
      "stateMutability": "nonpayable",
      "type": "constructor"
    },
    {
      "inputs": [
        {
          "internalType": "address",
          "name": "sender",
          "type": "address"
        },
        {
          "internalType": "uint256",
          "name": "i",
          "type": "uint256"
        }
      ],
      "name": "NotOwner",
      "type": "error"
    },
    {
      "anonymous": false,
      "inputs": [
        {
          "indexed": true,
          "internalType": "address",
          "name": "owner",
          "type": "address"
        },
        {
          "indexed": true,
          "internalType": "address",
          "name": "approved",
          "type": "address"
        },
        {
          "indexed": true,
          "internalType": "uint256",
          "name": "tokenId",
          "type": "uint256"
        }
      ],
      "name": "Approval",
      "type": "event"
    },
    {
      "anonymous": false,
      "inputs": [
        {
          "indexed": true,
          "internalType": "address",
          "name": "owner",
          "type": "address"
        },
        {
          "indexed": true,
          "internalType": "address",
          "name": "operator",
          "type": "address"
        },
        {
          "indexed": false,
          "internalType": "bool",
          "name": "approved",
          "type": "bool"
        }
      ],
      "name": "ApprovalForAll",
      "type": "event"
    },
    {
      "anonymous": false,
      "inputs": [
        {
          "indexed": true,
          "internalType": "address",
          "name": "from",
          "type": "address"
        },
        {
          "indexed": true,
          "internalType": "address",
          "name": "to",
          "type": "address"
        },
        {
          "indexed": true,
          "internalType": "uint256",
          "name": "tokenId",
          "type": "uint256"
        }
      ],
      "name": "Transfer",
      "type": "event"
    },
    {
      "inputs": [
        {
          "internalType": "address",
          "name": "to",
          "type": "address"
        },
        {
          "internalType": "uint256",
          "name": "tokenId",
          "type": "uint256"
        }
      ],
      "name": "approve",
      "outputs": [],
      "stateMutability": "nonpayable",
      "type": "function"
    },
    {
      "inputs": [
        {
          "internalType": "address",
          "name": "owner",
          "type": "address"
        }
      ],
      "name": "balanceOf",
      "outputs": [
        {
          "internalType": "uint256",
          "name": "",
          "type": "uint256"
        }
      ],
      "stateMutability": "view",
      "type": "function"
    },
    {
      "inputs": [
        {
          "internalType": "uint256",
          "name": "tokenId",
          "type": "uint256"
        }
      ],
      "name": "burn",
      "outputs": [],
      "stateMutability": "nonpayable",
      "type": "function"
    },
    {
      "inputs": [
        {
          "internalType": "string",
          "name": "tokenURI",
          "type": "string"
        }
      ],
      "name": "createNFT",
      "outputs": [
        {
          "internalType": "uint256",
          "name": "",
          "type": "uint256"
        }
      ],
      "stateMutability": "nonpayable",
      "type": "function"
    },
    {
      "inputs": [
        {
          "internalType": "uint256",
          "name": "tokenId",
          "type": "uint256"
        }
      ],
      "name": "getApproved",
      "outputs": [
        {
          "internalType": "address",
          "name": "",
          "type": "address"
        }
      ],
      "stateMutability": "view",
      "type": "function"
    },
    {
      "inputs": [],
      "name": "getTrustedForwarder",
      "outputs": [
        {
          "internalType": "address",
          "name": "forwarder",
          "type": "address"
        }
      ],
      "stateMutability": "view",
      "type": "function"
    },
    {
      "inputs": [
        {
          "internalType": "address",
          "name": "owner",
          "type": "address"
        },
        {
          "internalType": "address",
          "name": "operator",
          "type": "address"
        }
      ],
      "name": "isApprovedForAll",
      "outputs": [
        {
          "internalType": "bool",
          "name": "",
          "type": "bool"
        }
      ],
      "stateMutability": "view",
      "type": "function"
    },
    {
      "inputs": [
        {
          "internalType": "address",
          "name": "forwarder",
          "type": "address"
        }
      ],
      "name": "isTrustedForwarder",
      "outputs": [
        {
          "internalType": "bool",
          "name": "",
          "type": "bool"
        }
      ],
      "stateMutability": "view",
      "type": "function"
    },
    {
      "inputs": [],
      "name": "name",
      "outputs": [
        {
          "internalType": "string",
          "name": "",
          "type": "string"
        }
      ],
      "stateMutability": "view",
      "type": "function"
    },
    {
      "inputs": [
        {
          "internalType": "uint256",
          "name": "tokenId",
          "type": "uint256"
        }
      ],
      "name": "ownerOf",
      "outputs": [
        {
          "internalType": "address",
          "name": "",
          "type": "address"
        }
      ],
      "stateMutability": "view",
      "type": "function"
    },
    {
      "inputs": [
        {
          "internalType": "address",
          "name": "from",
          "type": "address"
        },
        {
          "internalType": "address",
          "name": "to",
          "type": "address"
        },
        {
          "internalType": "uint256",
          "name": "tokenId",
          "type": "uint256"
        }
      ],
      "name": "safeTransferFrom",
      "outputs": [],
      "stateMutability": "nonpayable",
      "type": "function"
    },
    {
      "inputs": [
        {
          "internalType": "address",
          "name": "from",
          "type": "address"
        },
        {
          "internalType": "address",
          "name": "to",
          "type": "address"
        },
        {
          "internalType": "uint256",
          "name": "tokenId",
          "type": "uint256"
        },
        {
          "internalType": "bytes",
          "name": "data",
          "type": "bytes"
        }
      ],
      "name": "safeTransferFrom",
      "outputs": [],
      "stateMutability": "nonpayable",
      "type": "function"
    },
    {
      "inputs": [
        {
          "internalType": "address",
          "name": "operator",
          "type": "address"
        },
        {
          "internalType": "bool",
          "name": "approved",
          "type": "bool"
        }
      ],
      "name": "setApprovalForAll",
      "outputs": [],
      "stateMutability": "nonpayable",
      "type": "function"
    },
    {
      "inputs": [
        {
          "internalType": "bytes4",
          "name": "interfaceId",
          "type": "bytes4"
        }
      ],
      "name": "supportsInterface",
      "outputs": [
        {
          "internalType": "bool",
          "name": "",
          "type": "bool"
        }
      ],
      "stateMutability": "view",
      "type": "function"
    },
    {
      "inputs": [],
      "name": "symbol",
      "outputs": [
        {
          "internalType": "string",
          "name": "",
          "type": "string"
        }
      ],
      "stateMutability": "view",
      "type": "function"
    },
    {
      "inputs": [
        {
          "internalType": "uint256",
          "name": "tokenId",
          "type": "uint256"
        }
      ],
      "name": "tokenURI",
      "outputs": [
        {
          "internalType": "string",
          "name": "",
          "type": "string"
        }
      ],
      "stateMutability": "view",
      "type": "function"
    },
    {
      "inputs": [
        {
          "internalType": "address",
          "name": "from",
          "type": "address"
        },
        {
          "internalType": "address",
          "name": "to",
          "type": "address"
        },
        {
          "internalType": "uint256",
          "name": "tokenId",
          "type": "uint256"
        }
      ],
      "name": "transferFrom",
      "outputs": [],
      "stateMutability": "nonpayable",
      "type": "function"
    },
    {
      "inputs": [],
      "name": "versionRecipient",
      "outputs": [
        {
          "internalType": "string",
          "name": "",
          "type": "string"
        }
      ],
      "stateMutability": "view",
      "type": "function"
    }
  ],
  "bytecode": "0x60e0604052600660a08190526576302e302e3160d01b60c0908152620000299160089190620000fd565b503480156200003757600080fd5b5060405162001b3238038062001b328339810160408190526200005a91620001c0565b604080518082018252600a8152694170652046616d696c7960b01b6020808301918252835180850190945260048452634150464160e01b908401528151919291620000a891600091620000fd565b508051620000be906001906020840190620000fd565b5050506001600160a01b038216608052620000f581600780546001600160a01b0319166001600160a01b0392909216919091179055565b505062000235565b8280546200010b90620001f8565b90600052602060002090601f0160209004810192826200012f57600085556200017a565b82601f106200014a57805160ff19168380011785556200017a565b828001600101855582156200017a579182015b828111156200017a5782518255916020019190600101906200015d565b50620001889291506200018c565b5090565b5b808211156200018857600081556001016200018d565b80516001600160a01b0381168114620001bb57600080fd5b919050565b60008060408385031215620001d457600080fd5b620001df83620001a3565b9150620001ef60208401620001a3565b90509250929050565b600181811c908216806200020d57607f821691505b602082108114156200022f57634e487b7160e01b600052602260045260246000fd5b50919050565b6080516118e16200025160003960006108d001526118e16000f3fe608060405234801561001057600080fd5b50600436106101165760003560e01c80636352211e116100a2578063b88d4fde11610071578063b88d4fde1461024a578063c87b56dd1461025d578063ce1b815f14610270578063da2ed03e14610281578063e985e9c51461029457600080fd5b80636352211e146101fb57806370a082311461020e57806395d89b411461022f578063a22cb4651461023757600080fd5b806323b872dd116100e957806323b872dd1461019857806342842e0e146101ab57806342966c68146101be578063486ff0cd146101d1578063572b6c05146101d957600080fd5b806301ffc9a71461011b57806306fdde0314610143578063081812fc14610158578063095ea7b314610183575b600080fd5b61012e610129366004611395565b6102d0565b60405190151581526020015b60405180910390f35b61014b610322565b60405161013a919061140a565b61016b61016636600461141d565b6103b4565b6040516001600160a01b03909116815260200161013a565b610196610191366004611452565b6103db565b005b6101966101a636600461147c565b610508565b6101966101b936600461147c565b610540565b6101966101cc36600461141d565b61055b565b61014b6105aa565b61012e6101e73660046114b8565b6007546001600160a01b0391821691161490565b61016b61020936600461141d565b610638565b61022161021c3660046114b8565b610698565b60405190815260200161013a565b61014b61071e565b6101966102453660046114d3565b61072d565b61019661025836600461159b565b610743565b61014b61026b36600461141d565b610782565b6007546001600160a01b031661016b565b61022161028f366004611617565b610893565b61012e6102a2366004611660565b6001600160a01b03918216600090815260056020908152604080832093909416825291909152205460ff1690565b60006001600160e01b031982166380ac58cd60e01b148061030157506001600160e01b03198216635b5e139f60e01b145b8061031c57506301ffc9a760e01b6001600160e01b03198316145b92915050565b60606000805461033190611693565b80601f016020809104026020016040519081016040528092919081815260200182805461035d90611693565b80156103aa5780601f1061037f576101008083540402835291602001916103aa565b820191906000526020600020905b81548152906001019060200180831161038d57829003601f168201915b5050505050905090565b60006103bf826108f6565b506000908152600460205260409020546001600160a01b031690565b60006103e682610638565b9050806001600160a01b0316836001600160a01b031614156104595760405162461bcd60e51b815260206004820152602160248201527f4552433732313a20617070726f76616c20746f2063757272656e74206f776e656044820152603960f91b60648201526084015b60405180910390fd5b806001600160a01b031661046b610955565b6001600160a01b031614806104875750610487816102a2610955565b6104f95760405162461bcd60e51b815260206004820152603e60248201527f4552433732313a20617070726f76652063616c6c6572206973206e6f7420746f60448201527f6b656e206f776e6572206e6f7220617070726f76656420666f7220616c6c00006064820152608401610450565b6105038383610964565b505050565b610519610513610955565b826109d2565b6105355760405162461bcd60e51b8152600401610450906116ce565b610503838383610a50565b61050383838360405180602001604052806000815250610743565b610566610513610955565b61059e57610572610955565b604051636f7f64bf60e01b81526001600160a01b03909116600482015260248101829052604401610450565b6105a781610bec565b50565b600880546105b790611693565b80601f01602080910402602001604051908101604052809291908181526020018280546105e390611693565b80156106305780601f1061060557610100808354040283529160200191610630565b820191906000526020600020905b81548152906001019060200180831161061357829003601f168201915b505050505081565b6000818152600260205260408120546001600160a01b03168061031c5760405162461bcd60e51b8152602060048201526018602482015277115490cdcc8c4e881a5b9d985b1a59081d1bdad95b88125160421b6044820152606401610450565b60006001600160a01b0382166107025760405162461bcd60e51b815260206004820152602960248201527f4552433732313a2061646472657373207a65726f206973206e6f7420612076616044820152683634b21037bbb732b960b91b6064820152608401610450565b506001600160a01b031660009081526003602052604090205490565b60606001805461033190611693565b61073f610738610955565b8383610c2c565b5050565b61075461074e610955565b836109d2565b6107705760405162461bcd60e51b8152600401610450906116ce565b61077c84848484610cfb565b50505050565b606061078d826108f6565b600082815260066020526040812080546107a690611693565b80601f01602080910402602001604051908101604052809291908181526020018280546107d290611693565b801561081f5780601f106107f45761010080835404028352916020019161081f565b820191906000526020600020905b81548152906001019060200180831161080257829003601f168201915b50505050509050600061083d60408051602081019091526000815290565b9050805160001415610850575092915050565b81511561088257808260405160200161086a92919061171c565b60405160208183030381529060405292505050919050565b61088b84610d2e565b949350505050565b60006108a3600980546001019055565b60006108ae60095490565b90506108c16108bb610955565b82610da2565b6108cb8184610dbc565b61031c7f0000000000000000000000000000000000000000000000000000000000000000600161072d565b6000818152600260205260409020546001600160a01b03166105a75760405162461bcd60e51b8152602060048201526018602482015277115490cdcc8c4e881a5b9d985b1a59081d1bdad95b88125160421b6044820152606401610450565b600061095f610e56565b905090565b600081815260046020526040902080546001600160a01b0319166001600160a01b038416908117909155819061099982610638565b6001600160a01b03167f8c5be1e5ebec7d5bd14f71427d1e84f3dd0314c0f7b2291e5b200ac8c7c3b92560405160405180910390a45050565b6000806109de83610638565b9050806001600160a01b0316846001600160a01b03161480610a2557506001600160a01b0380821660009081526005602090815260408083209388168352929052205460ff165b8061088b5750836001600160a01b0316610a3e846103b4565b6001600160a01b031614949350505050565b826001600160a01b0316610a6382610638565b6001600160a01b031614610ac75760405162461bcd60e51b815260206004820152602560248201527f4552433732313a207472616e736665722066726f6d20696e636f72726563742060448201526437bbb732b960d91b6064820152608401610450565b6001600160a01b038216610b295760405162461bcd60e51b8152602060048201526024808201527f4552433732313a207472616e7366657220746f20746865207a65726f206164646044820152637265737360e01b6064820152608401610450565b610b34600082610964565b6001600160a01b0383166000908152600360205260408120805460019290610b5d908490611761565b90915550506001600160a01b0382166000908152600360205260408120805460019290610b8b908490611778565b909155505060008181526002602052604080822080546001600160a01b0319166001600160a01b0386811691821790925591518493918716917fddf252ad1be2c89b69c2b068fc378daa952ba7f163c4a11628f55a4df523b3ef91a4505050565b610bf581610e8a565b60008181526006602052604090208054610c0e90611693565b1590506105a75760008181526006602052604081206105a7916112ac565b816001600160a01b0316836001600160a01b03161415610c8e5760405162461bcd60e51b815260206004820152601960248201527f4552433732313a20617070726f766520746f2063616c6c6572000000000000006044820152606401610450565b6001600160a01b03838116600081815260056020908152604080832094871680845294825291829020805460ff191686151590811790915591519182527f17307eab39ab6107e8899845ad3d59bd9653f200f220920489ca2b5937696c31910160405180910390a3505050565b610d06848484610a50565b610d1284848484610f25565b61077c5760405162461bcd60e51b815260040161045090611790565b6060610d39826108f6565b6000610d5060408051602081019091526000815290565b90506000815111610d705760405180602001604052806000815250610d9b565b80610d7a84611039565b604051602001610d8b92919061171c565b6040516020818303038152906040525b9392505050565b61073f828260405180602001604052806000815250611137565b6000828152600260205260409020546001600160a01b0316610e375760405162461bcd60e51b815260206004820152602e60248201527f45524337323155524953746f726167653a2055524920736574206f66206e6f6e60448201526d32bc34b9ba32b73a103a37b5b2b760911b6064820152608401610450565b60008281526006602090815260409091208251610503928401906112e6565b600060143610801590610e7357506007546001600160a01b031633145b15610e85575060131936013560601c90565b503390565b6000610e9582610638565b9050610ea2600083610964565b6001600160a01b0381166000908152600360205260408120805460019290610ecb908490611761565b909155505060008281526002602052604080822080546001600160a01b0319169055518391906001600160a01b038416907fddf252ad1be2c89b69c2b068fc378daa952ba7f163c4a11628f55a4df523b3ef908390a45050565b60006001600160a01b0384163b1561102e57836001600160a01b031663150b7a02610f4e610955565b8786866040518563ffffffff1660e01b8152600401610f7094939291906117e2565b602060405180830381600087803b158015610f8a57600080fd5b505af1925050508015610fba575060408051601f3d908101601f19168201909252610fb79181019061181f565b60015b611014573d808015610fe8576040519150601f19603f3d011682016040523d82523d6000602084013e610fed565b606091505b50805161100c5760405162461bcd60e51b815260040161045090611790565b805181602001fd5b6001600160e01b031916630a85bd0160e11b14905061088b565b506001949350505050565b60608161105d5750506040805180820190915260018152600360fc1b602082015290565b8160005b811561108757806110718161183c565b91506110809050600a8361186d565b9150611061565b60008167ffffffffffffffff8111156110a2576110a261150f565b6040519080825280601f01601f1916602001820160405280156110cc576020820181803683370190505b5090505b841561088b576110e1600183611761565b91506110ee600a86611881565b6110f9906030611778565b60f81b81838151811061110e5761110e611895565b60200101906001600160f81b031916908160001a905350611130600a8661186d565b94506110d0565b611141838361116a565b61114e6000848484610f25565b6105035760405162461bcd60e51b815260040161045090611790565b6001600160a01b0382166111c05760405162461bcd60e51b815260206004820181905260248201527f4552433732313a206d696e7420746f20746865207a65726f20616464726573736044820152606401610450565b6000818152600260205260409020546001600160a01b0316156112255760405162461bcd60e51b815260206004820152601c60248201527f4552433732313a20746f6b656e20616c7265616479206d696e746564000000006044820152606401610450565b6001600160a01b038216600090815260036020526040812080546001929061124e908490611778565b909155505060008181526002602052604080822080546001600160a01b0319166001600160a01b03861690811790915590518392907fddf252ad1be2c89b69c2b068fc378daa952ba7f163c4a11628f55a4df523b3ef908290a45050565b5080546112b890611693565b6000825580601f106112c8575050565b601f0160209004906000526020600020908101906105a7919061136a565b8280546112f290611693565b90600052602060002090601f016020900481019282611314576000855561135a565b82601f1061132d57805160ff191683800117855561135a565b8280016001018555821561135a579182015b8281111561135a57825182559160200191906001019061133f565b5061136692915061136a565b5090565b5b80821115611366576000815560010161136b565b6001600160e01b0319811681146105a757600080fd5b6000602082840312156113a757600080fd5b8135610d9b8161137f565b60005b838110156113cd5781810151838201526020016113b5565b8381111561077c5750506000910152565b600081518084526113f68160208601602086016113b2565b601f01601f19169290920160200192915050565b602081526000610d9b60208301846113de565b60006020828403121561142f57600080fd5b5035919050565b80356001600160a01b038116811461144d57600080fd5b919050565b6000806040838503121561146557600080fd5b61146e83611436565b946020939093013593505050565b60008060006060848603121561149157600080fd5b61149a84611436565b92506114a860208501611436565b9150604084013590509250925092565b6000602082840312156114ca57600080fd5b610d9b82611436565b600080604083850312156114e657600080fd5b6114ef83611436565b91506020830135801515811461150457600080fd5b809150509250929050565b634e487b7160e01b600052604160045260246000fd5b600067ffffffffffffffff808411156115405761154061150f565b604051601f8501601f19908116603f011681019082821181831017156115685761156861150f565b8160405280935085815286868601111561158157600080fd5b858560208301376000602087830101525050509392505050565b600080600080608085870312156115b157600080fd5b6115ba85611436565b93506115c860208601611436565b925060408501359150606085013567ffffffffffffffff8111156115eb57600080fd5b8501601f810187136115fc57600080fd5b61160b87823560208401611525565b91505092959194509250565b60006020828403121561162957600080fd5b813567ffffffffffffffff81111561164057600080fd5b8201601f8101841361165157600080fd5b61088b84823560208401611525565b6000806040838503121561167357600080fd5b61167c83611436565b915061168a60208401611436565b90509250929050565b600181811c908216806116a757607f821691505b602082108114156116c857634e487b7160e01b600052602260045260246000fd5b50919050565b6020808252602e908201527f4552433732313a2063616c6c6572206973206e6f7420746f6b656e206f776e6560408201526d1c881b9bdc88185c1c1c9bdd995960921b606082015260800190565b6000835161172e8184602088016113b2565b8351908301906117428183602088016113b2565b01949350505050565b634e487b7160e01b600052601160045260246000fd5b6000828210156117735761177361174b565b500390565b6000821982111561178b5761178b61174b565b500190565b60208082526032908201527f4552433732313a207472616e7366657220746f206e6f6e20455243373231526560408201527131b2b4bb32b91034b6b83632b6b2b73a32b960711b606082015260800190565b6001600160a01b0385811682528416602082015260408101839052608060608201819052600090611815908301846113de565b9695505050505050565b60006020828403121561183157600080fd5b8151610d9b8161137f565b60006000198214156118505761185061174b565b5060010190565b634e487b7160e01b600052601260045260246000fd5b60008261187c5761187c611857565b500490565b60008261189057611890611857565b500690565b634e487b7160e01b600052603260045260246000fdfea2646970667358221220a93873a281b755bd0a4add0723dd8dfdcea731e784ac0f3067831a039288781e64736f6c63430008090033",
  "linkReferences": {},
  "deployedLinkReferences": {}
}