{
  "_format": "hh-sol-artifact-1",
  "contractName": "NftMarketPlace",
  "sourceName": "contracts/NftMarketPlace.sol",
  "abi": [
    {
      "inputs": [
        {
          "internalType": "address",
          "name": "forwarder",
          "type": "address"
        }
      ],
      "stateMutability": "nonpayable",
      "type": "constructor"
    },
    {
      "inputs": [
        {
          "internalType": "address",
          "name": "caller",
          "type": "address"
        },
        {
          "internalType": "uint256",
          "name": "tokenId",
          "type": "uint256"
        }
      ],
      "name": "NftMarketPlace__CallerIsOwnerOfToken",
      "type": "error"
    },
    {
      "inputs": [
        {
          "internalType": "uint256",
          "name": "value",
          "type": "uint256"
        }
      ],
      "name": "NftMarketPlace__DidNotPayLISTINGPRICE",
      "type": "error"
    },
    {
      "inputs": [
        {
          "internalType": "address",
          "name": "requester",
          "type": "address"
        }
      ],
      "name": "NftMarketPlace__NotOwnerOfContract",
      "type": "error"
    },
    {
      "inputs": [
        {
          "internalType": "address",
          "name": "sender",
          "type": "address"
        },
        {
          "internalType": "uint256",
          "name": "tokenId",
          "type": "uint256"
        }
      ],
      "name": "NftMarketPlace__NotOwnerOfToken",
      "type": "error"
    },
    {
      "inputs": [
        {
          "internalType": "uint256",
          "name": "tokenId",
          "type": "uint256"
        }
      ],
      "name": "NftMarketPlace__TokenAlreadyOnSale",
      "type": "error"
    },
    {
      "inputs": [
        {
          "internalType": "uint256",
          "name": "tokenId",
          "type": "uint256"
        }
      ],
      "name": "NftMarketPlace__TokenIdUnderOne",
      "type": "error"
    },
    {
      "inputs": [
        {
          "internalType": "uint256",
          "name": "tokenId",
          "type": "uint256"
        }
      ],
      "name": "NftMarketPlace__TokenNotOnSale",
      "type": "error"
    },
    {
      "inputs": [
        {
          "internalType": "uint256",
          "name": "valueSend",
          "type": "uint256"
        }
      ],
      "name": "NftMarketPlace__UnequalToSellPrice",
      "type": "error"
    },
    {
      "inputs": [
        {
          "internalType": "address",
          "name": "sender",
          "type": "address"
        },
        {
          "internalType": "uint256",
          "name": "valueSend",
          "type": "uint256"
        }
      ],
      "name": "NftMarketPlace__ValueUnderOrEqualToZero",
      "type": "error"
    },
    {
      "anonymous": false,
      "inputs": [
        {
          "indexed": true,
          "internalType": "address",
          "name": "previousOwner",
          "type": "address"
        },
        {
          "indexed": true,
          "internalType": "address",
          "name": "newOwner",
          "type": "address"
        }
      ],
      "name": "OwnershipTransferred",
      "type": "event"
    },
    {
      "anonymous": false,
      "inputs": [
        {
          "indexed": true,
          "internalType": "address",
          "name": "sender",
          "type": "address"
        },
        {
          "indexed": false,
          "internalType": "uint256",
          "name": "value",
          "type": "uint256"
        },
        {
          "indexed": false,
          "internalType": "uint256",
          "name": "timestamp",
          "type": "uint256"
        }
      ],
      "name": "balanceDirectlyToContract",
      "type": "event"
    },
    {
      "anonymous": false,
      "inputs": [
        {
          "indexed": true,
          "internalType": "address",
          "name": "nftContractAddress",
          "type": "address"
        },
        {
          "indexed": false,
          "internalType": "uint256",
          "name": "tokenId",
          "type": "uint256"
        },
        {
          "indexed": false,
          "internalType": "uint256",
          "name": "price",
          "type": "uint256"
        },
        {
          "indexed": false,
          "internalType": "bool",
          "name": "onSale",
          "type": "bool"
        },
        {
          "indexed": false,
          "internalType": "address",
          "name": "owner",
          "type": "address"
        },
        {
          "indexed": true,
          "internalType": "address",
          "name": "seller",
          "type": "address"
        },
        {
          "indexed": false,
          "internalType": "address",
          "name": "minter",
          "type": "address"
        }
      ],
      "name": "marketItemBought",
      "type": "event"
    },
    {
      "anonymous": false,
      "inputs": [
        {
          "indexed": true,
          "internalType": "address",
          "name": "nftContractAddress",
          "type": "address"
        },
        {
          "indexed": true,
          "internalType": "uint256",
          "name": "tokenId",
          "type": "uint256"
        },
        {
          "indexed": false,
          "internalType": "uint256",
          "name": "price",
          "type": "uint256"
        },
        {
          "indexed": false,
          "internalType": "bool",
          "name": "onSale",
          "type": "bool"
        },
        {
          "indexed": true,
          "internalType": "address",
          "name": "owner",
          "type": "address"
        },
        {
          "indexed": false,
          "internalType": "address",
          "name": "seller",
          "type": "address"
        },
        {
          "indexed": false,
          "internalType": "address",
          "name": "minter",
          "type": "address"
        }
      ],
      "name": "marketItemCreated",
      "type": "event"
    },
    {
      "anonymous": false,
      "inputs": [
        {
          "indexed": true,
          "internalType": "address",
          "name": "nftContractAddress",
          "type": "address"
        },
        {
          "indexed": false,
          "internalType": "uint256",
          "name": "tokenId",
          "type": "uint256"
        },
        {
          "indexed": false,
          "internalType": "uint256",
          "name": "price",
          "type": "uint256"
        },
        {
          "indexed": false,
          "internalType": "bool",
          "name": "onSale",
          "type": "bool"
        },
        {
          "indexed": false,
          "internalType": "address",
          "name": "owner",
          "type": "address"
        },
        {
          "indexed": true,
          "internalType": "address",
          "name": "seller",
          "type": "address"
        },
        {
          "indexed": false,
          "internalType": "address",
          "name": "minter",
          "type": "address"
        }
      ],
      "name": "marketItemOnSale",
      "type": "event"
    },
    {
      "inputs": [],
      "name": "LISTINGPRICE",
      "outputs": [
        {
          "internalType": "uint256",
          "name": "",
          "type": "uint256"
        }
      ],
      "stateMutability": "view",
      "type": "function"
    },
    {
      "inputs": [
        {
          "internalType": "uint256",
          "name": "_tokenId",
          "type": "uint256"
        },
        {
          "internalType": "address",
          "name": "_nftContractAddress",
          "type": "address"
        }
      ],
      "name": "buyMarketToken",
      "outputs": [],
      "stateMutability": "payable",
      "type": "function"
    },
    {
      "inputs": [],
      "name": "fetchAllMyTokens",
      "outputs": [
        {
          "components": [
            {
              "internalType": "address",
              "name": "nftContractAddress",
              "type": "address"
            },
            {
              "internalType": "uint256",
              "name": "tokenId",
              "type": "uint256"
            },
            {
              "internalType": "uint256",
              "name": "price",
              "type": "uint256"
            },
            {
              "internalType": "bool",
              "name": "onSale",
              "type": "bool"
            },
            {
              "internalType": "address payable",
              "name": "owner",
              "type": "address"
            },
            {
              "internalType": "address payable",
              "name": "seller",
              "type": "address"
            },
            {
              "internalType": "address",
              "name": "minter",
              "type": "address"
            }
          ],
          "internalType": "struct NftMarketPlace.MarketToken[]",
          "name": "",
          "type": "tuple[]"
        }
      ],
      "stateMutability": "view",
      "type": "function"
    },
    {
      "inputs": [],
      "name": "fetchAllTokens",
      "outputs": [
        {
          "components": [
            {
              "internalType": "address",
              "name": "nftContractAddress",
              "type": "address"
            },
            {
              "internalType": "uint256",
              "name": "tokenId",
              "type": "uint256"
            },
            {
              "internalType": "uint256",
              "name": "price",
              "type": "uint256"
            },
            {
              "internalType": "bool",
              "name": "onSale",
              "type": "bool"
            },
            {
              "internalType": "address payable",
              "name": "owner",
              "type": "address"
            },
            {
              "internalType": "address payable",
              "name": "seller",
              "type": "address"
            },
            {
              "internalType": "address",
              "name": "minter",
              "type": "address"
            }
          ],
          "internalType": "struct NftMarketPlace.MarketToken[]",
          "name": "",
          "type": "tuple[]"
        }
      ],
      "stateMutability": "view",
      "type": "function"
    },
    {
      "inputs": [],
      "name": "fetchAllTokensOnSale",
      "outputs": [
        {
          "components": [
            {
              "internalType": "address",
              "name": "nftContractAddress",
              "type": "address"
            },
            {
              "internalType": "uint256",
              "name": "tokenId",
              "type": "uint256"
            },
            {
              "internalType": "uint256",
              "name": "price",
              "type": "uint256"
            },
            {
              "internalType": "bool",
              "name": "onSale",
              "type": "bool"
            },
            {
              "internalType": "address payable",
              "name": "owner",
              "type": "address"
            },
            {
              "internalType": "address payable",
              "name": "seller",
              "type": "address"
            },
            {
              "internalType": "address",
              "name": "minter",
              "type": "address"
            }
          ],
          "internalType": "struct NftMarketPlace.MarketToken[]",
          "name": "",
          "type": "tuple[]"
        }
      ],
      "stateMutability": "view",
      "type": "function"
    },
    {
      "inputs": [],
      "name": "fetchTokensMintedByCaller",
      "outputs": [
        {
          "components": [
            {
              "internalType": "address",
              "name": "nftContractAddress",
              "type": "address"
            },
            {
              "internalType": "uint256",
              "name": "tokenId",
              "type": "uint256"
            },
            {
              "internalType": "uint256",
              "name": "price",
              "type": "uint256"
            },
            {
              "internalType": "bool",
              "name": "onSale",
              "type": "bool"
            },
            {
              "internalType": "address payable",
              "name": "owner",
              "type": "address"
            },
            {
              "internalType": "address payable",
              "name": "seller",
              "type": "address"
            },
            {
              "internalType": "address",
              "name": "minter",
              "type": "address"
            }
          ],
          "internalType": "struct NftMarketPlace.MarketToken[]",
          "name": "",
          "type": "tuple[]"
        }
      ],
      "stateMutability": "view",
      "type": "function"
    },
    {
      "inputs": [],
      "name": "getListingPrice",
      "outputs": [
        {
          "internalType": "uint256",
          "name": "",
          "type": "uint256"
        }
      ],
      "stateMutability": "pure",
      "type": "function"
    },
    {
      "inputs": [],
      "name": "getTrustedForwarder",
      "outputs": [
        {
          "internalType": "address",
          "name": "forwarder",
          "type": "address"
        }
      ],
      "stateMutability": "view",
      "type": "function"
    },
    {
      "inputs": [
        {
          "internalType": "uint256",
          "name": "",
          "type": "uint256"
        }
      ],
      "name": "idToMarketToken",
      "outputs": [
        {
          "internalType": "address",
          "name": "nftContractAddress",
          "type": "address"
        },
        {
          "internalType": "uint256",
          "name": "tokenId",
          "type": "uint256"
        },
        {
          "internalType": "uint256",
          "name": "price",
          "type": "uint256"
        },
        {
          "internalType": "bool",
          "name": "onSale",
          "type": "bool"
        },
        {
          "internalType": "address payable",
          "name": "owner",
          "type": "address"
        },
        {
          "internalType": "address payable",
          "name": "seller",
          "type": "address"
        },
        {
          "internalType": "address",
          "name": "minter",
          "type": "address"
        }
      ],
      "stateMutability": "view",
      "type": "function"
    },
    {
      "inputs": [
        {
          "internalType": "address",
          "name": "forwarder",
          "type": "address"
        }
      ],
      "name": "isTrustedForwarder",
      "outputs": [
        {
          "internalType": "bool",
          "name": "",
          "type": "bool"
        }
      ],
      "stateMutability": "view",
      "type": "function"
    },
    {
      "inputs": [
        {
          "internalType": "address",
          "name": "_nftContractAddress",
          "type": "address"
        }
      ],
      "name": "mintMarketToken",
      "outputs": [],
      "stateMutability": "payable",
      "type": "function"
    },
    {
      "inputs": [],
      "name": "owner",
      "outputs": [
        {
          "internalType": "address",
          "name": "",
          "type": "address"
        }
      ],
      "stateMutability": "view",
      "type": "function"
    },
    {
      "inputs": [],
      "name": "renounceOwnership",
      "outputs": [],
      "stateMutability": "nonpayable",
      "type": "function"
    },
    {
      "inputs": [
        {
          "internalType": "uint256",
          "name": "_tokenId",
          "type": "uint256"
        },
        {
          "internalType": "uint256",
          "name": "sellPrice",
          "type": "uint256"
        },
        {
          "internalType": "address",
          "name": "_nftContractAddress",
          "type": "address"
        }
      ],
      "name": "saleMarketToken",
      "outputs": [],
      "stateMutability": "nonpayable",
      "type": "function"
    },
    {
      "inputs": [
        {
          "internalType": "address",
          "name": "newOwner",
          "type": "address"
        }
      ],
      "name": "transferOwnership",
      "outputs": [],
      "stateMutability": "nonpayable",
      "type": "function"
    },
    {
      "inputs": [],
      "name": "versionRecipient",
      "outputs": [
        {
          "internalType": "string",
          "name": "",
          "type": "string"
        }
      ],
      "stateMutability": "view",
      "type": "function"
    },
    {
      "inputs": [],
      "name": "withdrawContractsProfits",
      "outputs": [],
      "stateMutability": "nonpayable",
      "type": "function"
    }
  ],
  "bytecode": "0x60e0604052600660a08190526576302e302e3160d01b60c09081526200002991600391906200015b565b503480156200003757600080fd5b50604051620017fe380380620017fe8339810160408190526200005a9162000201565b6001600055620000736200006d620000b7565b620000d3565b6200007d620000b7565b6001600160a01b0316608052620000b081600180546001600160a01b0319166001600160a01b0392909216919091179055565b5062000270565b6000620000ce6200012560201b620011a11760201c565b905090565b600280546001600160a01b038381166001600160a01b0319831681179093556040519116919082907f8be0079c531659141344cd1fd0a4f28419497f9722a3daafe3b4186f6b6457e090600090a35050565b6000601436108015906200014357506001546001600160a01b031633145b1562000156575060131936013560601c90565b503390565b828054620001699062000233565b90600052602060002090601f0160209004810192826200018d5760008555620001d8565b82601f10620001a857805160ff1916838001178555620001d8565b82800160010185558215620001d8579182015b82811115620001d8578251825591602001919060010190620001bb565b50620001e6929150620001ea565b5090565b5b80821115620001e65760008155600101620001eb565b6000602082840312156200021457600080fd5b81516001600160a01b03811681146200022c57600080fd5b9392505050565b600181811c908216806200024857607f821691505b602082108114156200026a57634e487b7160e01b600052602260045260246000fd5b50919050565b6080516115726200028c60003960006109b901526115726000f3fe6080604052600436106100fe5760003560e01c80637929d1b511610095578063a80df8c011610064578063a80df8c01461030d578063b8c3617c14610328578063ce1b815f1461033d578063f2fde38b1461035b578063f9d138c31461037b57600080fd5b80637929d1b5146102015780638da5cb5b146102b157806390effc83146102e35780639e65442c146102f857600080fd5b8063486ff0cd116100d1578063486ff0cd14610176578063572b6c05146101985780636a31d992146101d7578063715018a6146101ec57600080fd5b806312e85585146101035780631b9e19c61461012c5780632528b6761461014157806338433c0514610163575b600080fd5b34801561010f57600080fd5b5066071afd498d00005b6040519081526020015b60405180910390f35b61013f61013a366004611307565b61039b565b005b34801561014d57600080fd5b5061015661057d565b6040516101239190611329565b61013f6101713660046113bd565b6106a9565b34801561018257600080fd5b5061018b610929565b60405161012391906113e9565b3480156101a457600080fd5b506101c76101b3366004611307565b6001546001600160a01b0391821691161490565b6040519015158152602001610123565b3480156101e357600080fd5b5061013f6109b7565b3480156101f857600080fd5b5061013f610a69565b34801561020d57600080fd5b5061026c61021c36600461143e565b60056020819052600091825260409091208054600182015460028301546003840154600485015494909501546001600160a01b03938416959294919360ff84169361010090048116928116911687565b604080516001600160a01b0398891681526020810197909752860194909452911515606085015284166080840152831660a083015290911660c082015260e001610123565b3480156102bd57600080fd5b506002546001600160a01b03165b6040516001600160a01b039091168152602001610123565b3480156102ef57600080fd5b50610156610a7d565b34801561030457600080fd5b50610156610c16565b34801561031957600080fd5b5061011966071afd498d000081565b34801561033457600080fd5b50610156610dcb565b34801561034957600080fd5b506001546001600160a01b03166102cb565b34801561036757600080fd5b5061013f610376366004611307565b610f78565b34801561038757600080fd5b5061013f610396366004611457565b610fee565b66071afd498d000034146103c957604051630c3cfc1f60e01b81523460048201526024015b60405180910390fd5b6103d7600480546001019055565b60006103e260045490565b90506040518060e00160405280836001600160a01b031681526020018281526020016000815260200160001515815260200161041c6111d5565b6001600160a01b03168152600060208201526040016104396111d5565b6001600160a01b039081169091526000838152600560208181526040808420865181549087166001600160a01b031991821617825592870151600182015590860151600282015560608601516003820180546080890151881661010002610100600160a81b0319931515939093166001600160a81b03199091161791909117905560a086015160048201805491871691841691909117905560c090950151949091018054949093169316929092179055600680543492906104fb9084906114a2565b9091555061050990506111d5565b6001600160a01b031681836001600160a01b03167f9dcc3573116b077cd633ea2be8f76d15617a8ab58fb28ba75f89e5d778db07ca600080600061054b6111d5565b6040805194855292151560208501526001600160a01b0391821684840152166060830152519081900360800190a45050565b6060600061058a60045490565b905060008167ffffffffffffffff8111156105a7576105a76114ba565b6040519080825280602002602001820160405280156105e057816020015b6105cd6112af565b8152602001906001900390816105c55790505b509050600060015b8381116106a057600081815260056020818152604092839020835160e08101855281546001600160a01b039081168252600183015493820193909352600282015494810194909452600381015460ff8116151560608601526101009004821660808501526004810154821660a0850152909101541660c08201528351849084908110610676576106766114d0565b602090810291909101015261068c6001836114a2565b915080610698816114e6565b9150506105e8565b50909392505050565b600260005414156106fc5760405162461bcd60e51b815260206004820152601f60248201527f5265656e7472616e637947756172643a207265656e7472616e742063616c6c0060448201526064016103c0565b6002600055816107225760405163681f561560e01b8152600481018390526024016103c0565b60008281526005602052604090206003015460ff16151560011461075c576040516361e4bceb60e01b8152600481018390526024016103c0565b600082815260056020526040902060020154341461078f576040516308be23c360e31b81523460048201526024016103c0565b60008281526005602052604090206003015461010090046001600160a01b03166107b76111d5565b6001600160a01b031614156107fa576107ce6111d5565b60405163bb4cd47d60e01b81526001600160a01b039091166004820152602481018390526044016103c0565b806001600160a01b03166323b872dd306108126111d5565b6040516001600160e01b031960e085901b1681526001600160a01b0392831660048201529116602482015260448101859052606401600060405180830381600087803b15801561086157600080fd5b505af1158015610875573d6000803e3d6000fd5b5050506000838152600560205260408082206004015490516001600160a01b0390911692503480156108fc0292909190818181858888f193505050501580156108c2573d6000803e3d6000fd5b5060008281526005602052604081206002810191909155600301805460ff191690556108ec6111d5565b600092835260056020526040832060030180546001600160a01b039290921661010002610100600160a81b03199092169190911790555060019055565b6003805461093690611501565b80601f016020809104026020016040519081016040528092919081815260200182805461096290611501565b80156109af5780601f10610984576101008083540402835291602001916109af565b820191906000526020600020905b81548152906001019060200180831161099257829003601f168201915b505050505081565b7f00000000000000000000000000000000000000000000000000000000000000006001600160a01b03166109e96111d5565b6001600160a01b031614610a24576109ff6111d5565b604051632ecc936560e21b81526001600160a01b0390911660048201526024016103c0565b610a2c6111d5565b6001600160a01b03166108fc6006549081150290604051600060405180830381858888f19350505050158015610a66573d6000803e3d6000fd5b50565b610a716111e4565b610a7b600061125d565b565b60606000610a8a60045490565b9050600060015b828111610ad75760008181526005602052604090206003015460ff16151560011415610ac557610ac26001836114a2565b91505b80610acf816114e6565b915050610a91565b5060008167ffffffffffffffff811115610af357610af36114ba565b604051908082528060200260200182016040528015610b2c57816020015b610b196112af565b815260200190600190039081610b115790505b509050600060015b848111610c0c5760008181526005602052604090206003015460ff16151560011415610bfa57600081815260056020818152604092839020835160e08101855281546001600160a01b039081168252600183015493820193909352600282015494810194909452600381015460ff8116151560608601526101009004821660808501526004810154821660a0850152909101541660c08201528351849084908110610be157610be16114d0565b6020908102919091010152610bf76001836114a2565b91505b80610c04816114e6565b915050610b34565b5090949350505050565b60606000610c2360045490565b9050600060015b828111610c8357610c396111d5565b60008281526005602052604090206003015461010090046001600160a01b0390811691161415610c7157610c6e6001836114a2565b91505b80610c7b816114e6565b915050610c2a565b5060008167ffffffffffffffff811115610c9f57610c9f6114ba565b604051908082528060200260200182016040528015610cd857816020015b610cc56112af565b815260200190600190039081610cbd5790505b509050600060015b848111610c0c57610cef6111d5565b60008281526005602052604090206003015461010090046001600160a01b0390811691161415610db957600081815260056020818152604092839020835160e08101855281546001600160a01b039081168252600183015493820193909352600282015494810194909452600381015460ff8116151560608601526101009004821660808501526004810154821660a0850152909101541660c08201528351849084908110610da057610da06114d0565b6020908102919091010152610db66001836114a2565b91505b80610dc3816114e6565b915050610ce0565b60606000610dd860045490565b9050600060015b828111610e3457610dee6111d5565b600082815260056020819052604090912001546001600160a01b0390811691161415610e2257610e1f6001836114a2565b91505b80610e2c816114e6565b915050610ddf565b5060008167ffffffffffffffff811115610e5057610e506114ba565b604051908082528060200260200182016040528015610e8957816020015b610e766112af565b815260200190600190039081610e6e5790505b509050600060015b848111610c0c57610ea06111d5565b600082815260056020819052604090912001546001600160a01b0390811691161415610f6657600081815260056020818152604092839020835160e08101855281546001600160a01b039081168252600183015493820193909352600282015494810194909452600381015460ff8116151560608601526101009004821660808501526004810154821660a0850152909101541660c08201528351849084908110610f4d57610f4d6114d0565b6020908102919091010152610f636001836114a2565b91505b80610f70816114e6565b915050610e91565b610f806111e4565b6001600160a01b038116610fe55760405162461bcd60e51b815260206004820152602660248201527f4f776e61626c653a206e6577206f776e657220697320746865207a65726f206160448201526564647265737360d01b60648201526084016103c0565b610a668161125d565b6000821161102a57610ffe6111d5565b6040516355d86de760e01b81526001600160a01b039091166004820152602481018390526044016103c0565b60008381526005602052604090206003015460ff1615611060576040516346a770ad60e11b8152600481018490526024016103c0565b6110686111d5565b60008481526005602052604090206003015461010090046001600160a01b039081169116146110c5576110996111d5565b60405163814d137960e01b81526001600160a01b039091166004820152602481018490526044016103c0565b806001600160a01b03166323b872dd6110dc6111d5565b6040516001600160e01b031960e084901b1681526001600160a01b03909116600482015230602482015260448101869052606401600060405180830381600087803b15801561112a57600080fd5b505af115801561113e573d6000803e3d6000fd5b505050600084815260056020526040902060028101849055600301805460ff191660011790555061116d6111d5565b60009384526005602052604090932060040180546001600160a01b0319166001600160a01b03909416939093179092555050565b6000601436108015906111be57506001546001600160a01b031633145b156111d0575060131936013560601c90565b503390565b60006111df6111a1565b905090565b6111ec6111d5565b6001600160a01b03166112076002546001600160a01b031690565b6001600160a01b031614610a7b5760405162461bcd60e51b815260206004820181905260248201527f4f776e61626c653a2063616c6c6572206973206e6f7420746865206f776e657260448201526064016103c0565b600280546001600160a01b038381166001600160a01b0319831681179093556040519116919082907f8be0079c531659141344cd1fd0a4f28419497f9722a3daafe3b4186f6b6457e090600090a35050565b6040805160e081018252600080825260208201819052918101829052606081018290526080810182905260a0810182905260c081019190915290565b80356001600160a01b038116811461130257600080fd5b919050565b60006020828403121561131957600080fd5b611322826112eb565b9392505050565b602080825282518282018190526000919060409081850190868401855b828110156113b057815180516001600160a01b0390811686528782015188870152868201518787015260608083015115159087015260808083015182169087015260a08083015182169087015260c091820151169085015260e09093019290850190600101611346565b5091979650505050505050565b600080604083850312156113d057600080fd5b823591506113e0602084016112eb565b90509250929050565b600060208083528351808285015260005b81811015611416578581018301518582016040015282016113fa565b81811115611428576000604083870101525b50601f01601f1916929092016040019392505050565b60006020828403121561145057600080fd5b5035919050565b60008060006060848603121561146c57600080fd5b8335925060208401359150611483604085016112eb565b90509250925092565b634e487b7160e01b600052601160045260246000fd5b600082198211156114b5576114b561148c565b500190565b634e487b7160e01b600052604160045260246000fd5b634e487b7160e01b600052603260045260246000fd5b60006000198214156114fa576114fa61148c565b5060010190565b600181811c9082168061151557607f821691505b6020821081141561153657634e487b7160e01b600052602260045260246000fd5b5091905056fea2646970667358221220b2b756025ecc98df173b1bcc0ec57bb63731697400f481d6a28f3be34569a8a264736f6c63430008090033",
  "linkReferences": {},
  "deployedLinkReferences": {}
}